:1000000000800020B1010000DD010000DD010000E2
:10001000DD010000DD010000DD010000DD01000068
:10002000DD010000DD010000DD010000DD01000058
:10003000DD010000DD010000DD010000DD01000048
:10004000DD010000DD010000DD010000DD01000038
:10005000DD010000DD010000DD010000DD01000028
:10006000DD010000DD010000DD010000DD01000018
:10007000DD010000DD010000DD010000DD01000008
:10008000DD010000DD010000DD010000DD010000F8
:10009000DD010000DD010000DD010000DD010000E8
:1000A000DD010000DD010000DD010000DD010000D8
:1000B000DD010000DD010000DD010000DD010000C8
:1000C000FD130000DD010000DD010000DD01000086
:1000D000DD010000DD010000DD010000DD010000A8
:1000E00010B5054C237833B9044B13B10448AFF372
:1000F00000800123237010BDA80000200000000034
:1001000044200000084B10B51BB108480849AFF364
:1001100000800848036803B910BD074B002BFBD0D3
:10012000BDE81040184700BF000000004420000058
:10013000AC000020A400002000000000154B002BA4
:1001400008BF134B9D46A3F5803A00218B460F460E
:100150001348144A121A01F0FDFA0F4B002B00D07D
:1001600098470E4B002B00D0984700200021040038
:100170000D000D48002802D00C48AFF3008001F0BC
:10018000C3FA2000290001F033FA01F0A9FA00BFF8
:1001900000000800008000200000000000000000B7
:1001A000A800002004010020000000000000000062
:1001B000064880470649074A074B9A42BEBF51F896
:1001C000040B42F8040BF8E7FFF7B8FF5D030000EB
:1001D0005020000000000020A8000020FEE700BF23
:1001E00080B400AF044BDB6C1B0EDBB21846BD467F
:1001F0005DF8047B704700BFB081E00F80B582B02E
:1002000000AF00F01FF87860074B5B6803F00F0346
:100210001A467B68D3407B60044A7B6813607B6826
:1002200018460837BD4680BD00800C40D80000202D
:1002300080B400AF024B1846BD465DF8047B7047A2
:10024000003FAB0180B582B000AF334BDB6A03F4F3
:100250007053B3F5805F0AD0B3F5005F03D0B3F5F8
:10026000006F08D00BE02D4B1B687B6047E04FF41C
:1002700000437B6043E02A4B1B687B603FE0264BDA
:10028000DB6803F4E063B3F5007F1BD0B3F5007FB8
:1002900005D8002B24D0B3F5807F16D02BE0B3F522
:1002A000806F09D0B3F5A06F03D0B3F5407F06D0BF
:1002B00021E01C4B7B6021E01B4B7B601EE01B4B55
:1002C0007B601BE01A4B7B6018E0FFF789FF034659
:1002D000122B02D9174B7B6010E0174B7B600DE0AF
:1002E000FFF77EFF0346122B02D9144B7B6005E01B
:1002F000134B7B6002E000237B6000BF00BF064B16
:100300001B6803F4E0339B0B01337A68B2FBF3F311
:1003100018460837BD4680BD00800C400400002010
:1003200000000020003FAB01406F4001809FD500DE
:10033000C0D8A70040B56400C0CF6A00804F12004B
:1003400040420F0080B400AF034B1B681846BD4607
:100350005DF8047B704700BF0000002080B400AF50
:10036000054A054BD3F8883043F47003C2F888304F
:10037000BD465DF8047B704700ED00E080B400AF3F
:100380004FF400431846BD465DF8047B704700BF3C
:1003900080B400AF4FF47A731846BD465DF8047B15
:1003A000704700BF80B400AF034B1B681846BD46C2
:1003B0005DF8047B704700BF0400002080B487B064
:1003C00000AFF860B9607A60FB6803F10473DA008B
:1003D000BB6813449B007B617B697A681A601C3799
:1003E000BD465DF8047B704780B485B000AF78608F
:1003F00039607B6803F10473DA003B6813449B00A7
:10040000FB60FB681B6818461437BD465DF8047B2B
:10041000704700BF80B485B000AF78607B68002B68
:1004200004D07B68B3F5004F00D800BF7B68B3FAF7
:1004300083F3C3F11F03FB60FB6818461437BD4606
:100440005DF8047B704700BF80B400AF044BDB6CE9
:100450001B0EDBB21846BD465DF8047B704700BF3B
:10046000B081E00F80B584B000AF786039607A6801
:100470003B689A428CBF01230023DBB2FB60064835
:100480001E21FA68FFF79AFF04480821FA68FFF76F
:1004900095FF1037BD4680BD00800C4004800C40A5
:1004A00080B582B000AF07481E21FFF79DFF78603E
:1004B00005480821FFF798FF38607B681846083721
:1004C000BD4680BD00800C4004800C4080B582B0E9
:1004D00000AF214B5B6903F4E063B3F5007F1CD0F0
:1004E000B3F5007F05D8002B25D0B3F5807F1FD052
:1004F0002AE0B3F5C06F24D0B3F5E06F1ED0B3F59A
:10050000407F21D1FFF7A0FF0346122B02D9134BE6
:100510007B601CE0124B7B6019E0FFF795FF034600
:10052000122B02D90F4B7B6011E00F4B7B600EE06A
:100530000E4B7B600BE00E4B7B6008E00D4B7B604D
:1005400005E00D4B7B6002E000237B6000BF7B6811
:1005500018460837BD4680BD00800C40804F120011
:1005600040420F0040B56400C0CF6A00C0D8A70069
:10057000809FD500406F4001003FAB0180B582B045
:1005800000AF0D4800F05EFA0346FB70FB78072BC6
:1005900005D0082B07D1FFF755FE786006E0FFF77E
:1005A00095FF786002E000237B6000BF7B681846FF
:1005B0000837BD4680BD00BF06000C0080B485B082
:1005C00000AF7860284BDB6B002B14BF01230023A6
:1005D000BB72254B41F67132DA63234B5B6803F043
:1005E0000703FB60FB68012B01D9042B02D1002318
:1005F000FB7202E00123FB7200BF7B681B4A93423F
:1006000007D9FB7A002B01D0052300E00423FB600F
:1006100016E07B68154A93420BD87B68144A9342D4
:1006200007D9FB7A002B01D0032300E00123FB60F4
:1006300006E0FB7A002B01D0022300E00023FB60E0
:100640000949094B5B6823F00702FB6813434B60C1
:10065000BB7A002B02D0044B0022DA631437BD466C
:100660005DF8047B704700BF00000C400048E801C3
:100670000024F40080B500AFFFF7DAFD034618460A
:10068000FFF79CFF80BD00BF90B585B000AF7860DC
:100690000023BB607B68344A934203D0334A9342C1
:1006A00000D000E000BF786800F0CCF90346FB60A2
:1006B0007B682D4A934203D02C4A934206D00CE02B
:1006C0002B4B9B6A03F00303FB6006E0284B9B6AFD
:1006D00003F00C039B08FB6000BFFB68032B3AD8B8
:1006E00001A252F823F000BF1F070000F906000026
:1006F0000107000009070000FFF740FEB8602DE089
:10070000FFF750FEB86029E0FFF778FD0446FFF7D9
:10071000C7FE0346013324FA03F3BB601EE0002347
:10072000BB607B68104A934203D07B680F4A9342B8
:1007300010D10F4B9A6A7B680B498B4201D1102371
:1007400000E0142322FA03F3002B03D0FFF720FE6E
:10075000B86003E002E00023BB6000BFBB6818463E
:100760001437BD4690BD00BF02001A0003001C00F4
:1007700000800C4080B483B000AF7860094B5B6DA3
:1007800003F00103002B00D006E000BF054B1A6DFB
:100790007B681340002BF9D10C37BD465DF8047B14
:1007A000704700BF00800C4080B586B000AF786015
:1007B0000B46FB7000233B617B681B0A03F00F03B1
:1007C000013B092B46D801A252F823F00B08000088
:1007D00011080000F507000055080000550800004A
:1007E0001708000021080000550800005508000007
:1007F0002B080000194B7B61194800F03FF80346B5
:1008000018461849FFF72EFE12E0174B7B610FE0E8
:10081000164B7B610CE0164B7B6101233B6107E0CB
:10082000144B7B6110233B6102E0134B7B6100BFE3
:100830007B681B0B03F01F03FB603B69002B02D09E
:100840003869FFF797FFFB787869F9681A46FFF770
:10085000B5FD00E000BF1837BD4680BD40800C40AC
:100860000043020000366E0108800C4044800C40BA
:1008700058800C4060800C4078800C4090B585B06A
:1008800000AF78607B6803F47813B3F5A01F5DD0E8
:10089000B3F5A01F17D8B3F5802F34D0B3F5802F50
:1008A00005D8002B2BD0B3F5003F38D0BBE0B3F513
:1008B000602F00F0B480B3F5801F39D0B3F5402F1E
:1008C00000F0A980AFE0B3F5E01F00F08480B3F53D
:1008D000E01F0AD8B3F5C01F00F08F80B3F5D01F1A
:1008E00021D0B3F5B01F7BD09DE0B3F5201F4ED0D3
:1008F000B3F5281F62D0B3F5181F35D093E0FFF78A
:10090000A1FCF86092E0FFF79DFCF8604A4B9B6801
:1009100003F00F031A46FB68D340FB6086E0FFF745
:100920006DFCF86082E04548FFF7AEFEF8607DE0C0
:100930004248FFF7A9FEF8603F4B9B6E03F0F003BF
:100940001B091A46FB68D340FB606FE03B48FFF78A
:100950009BFEF860384B9B6E03F470631B0A1A46CB
:10096000FB68D340FB6061E03448FFF78DFEF86020
:10097000314B9B6E03F440531C0B1020FFF74AFDD4
:10098000034623441A46FB68D340FB604EE02B48E5
:10099000FFF77AFEF860284B9B6E03F440531B0B65
:1009A0001A46FB68D340FB60234BDB6F03F0070361
:1009B0000133FA68B2FBF3F3FB6037E01F48FFF73F
:1009C00063FEF8601C4B9B6E03F003031A46FB6842
:1009D000D340FB602AE01A48FFF756FEF86025E096
:1009E0001748FFF751FEF860134B1B6F03F003032A
:1009F0001A46FB68D340FB6018E01148FFF744FE3D
:100A0000F8600D4B1B6F03F030031B091A46FB689F
:100A1000D340FB600AE0FFF7B1FDF86006E0FFF7A6
:100A200055FDF86002E00023FB6000BFFB6818463C
:100A30001437BD4690BD00BF00800C4002001A0074
:100A400003001C0080B485B000AF78600123FB7305
:100A50007B6803F00F03BB60BB68013B052B77D8B5
:100A600001A252F823F000BF810A0000B70A00007B
:100A7000F30A0000510B0000510B00002F0B000087
:100A8000384BDB6A03F47053B3F5805F09D0B3F5DC
:100A9000005F03D0B3F5006F06D008E00223FB73BC
:100AA00008E00323FB7305E00423FB7302E0052346
:100AB000FB7300BF4FE02B4B9B6A03F00303022B39
:100AC00006D0032B07D0012B08D10323FB730FE0C3
:100AD0000223FB730CE00623FB7309E0214B9B6AA6
:100AE00003F48033002B02D00923FB7300E000BF26
:100AF00031E01C4B9B6A03F00C03082B06D00C2B37
:100B000007D0042B08D10323FB730FE00223FB73F0
:100B10000CE00623FB7309E0124B9B6A03F480137D
:100B2000002B02D00923FB7300E000BF13E00D4B44
:100B30001B6803F08053002B03D0B3F1805F03D018
:100B400009E00723FB7302E00823FB7300BF02E008
:100B50000023FB7300BFFB7B18461437BD465DF8CE
:100B6000047B704700800C4080B588B000AF78608F
:100B70000B46FB700323FB610323FB7600233B61E1
:100B80007B6803F00F03FB60FB68013B052B00F261
:100B9000E98001A252F823F0B10B00007B0C0000A9
:100BA0007B0C0000650D0000650D00003B0D000092
:100BB000FB78023B072B00F2D98001A252F823F008
:100BC000E10B0000EB0B0000F50B0000310C000006
:100BD0006D0D00006D0D00006D0D00006D0D00002D
:100BE0000423FB610023FB762BE00323FB6101233D
:100BF000FB7626E00223FB610223FB765E485F4919
:100C0000FFF730FCFFF79EFB02465D4B9A4206D988
:100C10005C4A5C4B1B6843F06003136011E0594A67
:100C2000584B1B6823F0600343F02003136008E077
:100C30000123FB610323FB764F485049FFF712FC69
:100C400000BFFB7E18460121012200F0A1F8FFF74A
:100C500011FD4C4AFB6953624B48FFF70FFE0346F8
:100C600018464649FFF7FEFB00F0F2F8FFF7C6FA18
:100C7000B860B868FFF7A2FC75E0FB78013B082B71
:100C800076D801A252F823F0AD0C0000B30C00009E
:100C9000C30C0000710D0000710D0000D30C0000AA
:100CA000710D0000710D0000F10C000000237B614C
:100CB00023E000200121012200F06AF802237B6179
:100CC0001BE001200121012200F062F801237B6179
:100CD00013E0FFF793FAB860B8682849FFF7C2FB42
:100CE0002A4804210122FFF769FB03237B6104E00A
:100CF00000237B6101233B6100BFFB68022B0DD108
:100D00002049204B9B6A23F4803323F003037A6944
:100D10001A433B691B0413438B6224E01949194BA6
:100D20009B6A23F4801323F00C037A6992001A4320
:100D30003B691B0513438B6215E0FB78072B02D040
:100D4000082B07D015E00F4A0E4B1B6823F0805389
:100D5000136006E00B4A0B4B1B6843F08053136093
:100D600000BF00E000BFFFF79BFB02E000BF00E018
:100D700000BF2037BD4680BD01366E0100366E01D2
:100D80000048E80100800C400043020040800C4015
:100D900080B586B000AF0346FB710B46BB711346AE
:100DA0007B71FB79042B4AD801A252F823F000BFD3
:100DB000FD0D0000EF0D0000D30D0000C50D00007B
:100DC000E10D000001233B610223FB6001237B61F5
:100DD0001DE004233B610823FB6003237B6116E0D5
:100DE00010233B612023FB6005237B610FE0402340
:100DF0003B618023FB6007237B6108E04FF4807335
:100E00003B614FF40073FB6009237B6100BFBB793A
:100E1000002B0ED00C4A3B6913627B79002B0BD060
:100E200000BF0A487969FFF7DFFA0346002BF8D0C4
:100E300002E0054AFB68136200F00AF800E000BF18
:100E40001837BD4680BD00BF00800C402C800C4090
:100E500080B400AF034BDB6A034A1360BD465DF804
:100E6000047B704700800C40C400002080B483B035
:100E700000AF03463960FB71FB79002B0DD0FB7985
:100E8000012B0AD0FB79022B07D0FB79032B04D06E
:100E9000FB79042B01D0FB79052B0949FA793B68D2
:100EA000012000FA03F318461346DB0013449B00AD
:100EB0000B44103358600C37BD465DF8047B704717
:100EC0000060004080B483B000AF03463960FB711E
:100ED000FB79002B0DD0FB79012B0AD0FB79022B7B
:100EE00007D0FB79032B04D0FB79042B01D0FB79CD
:100EF000052B0949FA793B68012000FA03F31846EB
:100F00001346DB0013449B000B44103318600C376E
:100F1000BD465DF8047B70470060004090B585B029
:100F200000AFB9607B600346FB731346BB73FB7B6A
:100F3000002B0DD0FB7B012B0AD0FB7B022B07D0B3
:100F4000FB7B032B04D0FB7B042B01D0FB7B052B0D
:100F5000BB7B002B0DD07B68002B05D0FB7B18469C
:100F6000B968FFF7AFFF04E0FB7B1846B968FFF7ED
:100F70007DFFBB68072B1CD82A4CFA7B2948F97BDC
:100F80000B46DB000B449B0003445B68B968890097
:100F900008460F218140C9430B40B97BB8688000E7
:100FA000814019431346DB0013449B0023445960DE
:100FB00024E01C4CFA7B1B48F97B0B46DB000B44FE
:100FC0009B00034408331968BB6803F18043083B66
:100FD0009B0018460F238340DB431940B87BBB6856
:100FE00003F18043083B9B0000FA03F319431346C7
:100FF000DB0013449B00234408331960BB7B002BA8
:101000000DD17B68002B05D0FB7B1846B968FFF734
:1010100059FF04E0FB7B1846B968FFF727FF143738
:10102000BD4690BD0060004080B586B000AFF8605E
:10103000B9607A60FB70BB68002B03D12448FFF7CE
:101040001DFCB860FB78202B0CD0202B02DC002B81
:1010500005D03AE0402B08D0602B09D035E01023B2
:101060007B6108E008237B6105E006237B6102E0E9
:1010700004237B6100BFBB689A007B69796801FB30
:1010800003F35B0813443B617B697A6802FB03F35B
:101090003A69B2FBF3F33B613B69043B3B613B695B
:1010A0009B013B613A690B4B13403B61FB681B683A
:1010B00023F06002FB681A60FB681A68FB781A4329
:1010C000FB681A60FB683A695A611837BD4680BDF3
:1010D00040810400C0FF1F0080B485B000AF78607D
:1010E0000B46FB707B680F4A934207D07B680E4A21
:1010F000934203D07B680D4A934200D100BFFB7836
:10110000DB43FB60FB6803F00503FB60FB685A00F0
:101110007B68DA60FA787B68DA601437BD465DF880
:10112000047B704700C0004000C4004000C800407D
:1011300080B582B000AF786039607B68204A934206
:1011400007D07B681F4A934203D07B681E4A9342B4
:1011500000D100BF786800F039F83B689B7C002B19
:1011600005D07B681B6843F080427B681A603B684F
:10117000DB7C002B07D03B681B7D43F01003DBB208
:101180001A467B689A653B685B7B1A463B681B8AFC
:1011900013433A68D2891A437B685A603B6859689E
:1011A0003B689A683B681B7B7868FFF73DFF3B68AC
:1011B0001B781A467B68DA600837BD4680BD00BFE1
:1011C00000C0004000C4004000C8004080B483B0AC
:1011D00000AF78607B68204A934207D07B681F4A43
:1011E000934203D07B681E4A934200D100BF7B68C4
:1011F00040F6AA62DA607B6800221A607B6841F2DE
:1012000005025A607B6800229A607B6800225A615E
:101210007B680022DA647B6841F6F9729A647B6825
:1012200000225A657B680C4A934202D17B680022F7
:101230001A657B6800229A657B68084A934203D04E
:101240007B68074A934202D17B680022DA650C373B
:10125000BD465DF8047B704700C0004000C40040FC
:1012600000C8004080B483B000AF786000BF7B68E6
:101270001B6903F08003002BF9D07B68DB69DBB2CC
:1012800018460C37BD465DF8047B704780B483B0C8
:1012900000AF786000BF7B681B6903F48073002B8C
:1012A000F9D07B685B6A9BB218460C37BD465DF887
:1012B000047B704780B483B000AF78600B46FB704E
:1012C00000BF7B681B6903F04003002BF9D0FA785C
:1012D0007B685A630C37BD465DF8047B704700BFDE
:1012E00080B483B000AF78600B467B8000BF7B6822
:1012F0001B6903F04003002BF9D07A887B68DA631E
:101300000C37BD465DF8047B704700BF80B582B0E6
:1013100000AF0023FB80154B1B6903F08003002BFB
:101320001ED01248FFF7B2FF0346FB800F4A0F4B57
:10133000DB6843F40063D360FB8841F61E6293428E
:101340000ED100200D2104220123FFF7E7FD084BF9
:1013500001221A7000200D2104220023FFF7DEFD78
:10136000034B1B7818460837BD4680BD00C40040BB
:10137000E400002080B483B000AF0346FB7108494D
:1013800097F907305B09FA7902F01F02012000FA91
:1013900002F241F823200C37BD465DF8047B70470C
:1013A00000E100E080B483B000AF7860034A7B685E
:1013B00093630C37BD465DF8047B704700800C409A
:1013C00080B483B000AF78600549054BDA6B7B6869
:1013D0001343CB630C37BD465DF8047B704700BFF9
:1013E00000800C4080B400AF034B1B6B1846BD4619
:1013F0005DF8047B704700BF00800C4080B582B070
:1014000000AFFFF7EFFF78600320FFF7CBFF7B68AB
:1014100003F00203002B0BD011200421FFF7A4FBE3
:10142000032000210022FFF7B3FC034B01221A60C6
:101430000837BD4680BD00BFC800002080B500AFA2
:1014400011200521FFF790FB1A480121FFF7ACF9A5
:1014500019480121FFF7A8F918480121FFF7A4F95D
:10146000022001210022FFF793FC0220FFF7A8FFD2
:101470002020FFF77FFF00BF114B1B68012BFBD122
:10148000104A104B1B6823F0030343F00203136060
:101490000C4A0C4B1B6823F4E00343F480131360E5
:1014A000084A084BD3F8803043F00103C2F880307B
:1014B00080BD00BF00D2040000520400006204009E
:1014C000C800002000800C4080B500AF04200D2132
:1014D00004220123FFF722FD05200321042201231A
:1014E000FFF71CFD0520042104220023FFF716FD51
:1014F0000520052104220123FFF710FD80BD00BF58
:1015000080B586B000AF1E480121FFF74DF90320DA
:10151000072104220123FFF701FD032006210122F8
:101520000023FFF7FBFC3B4600221A600433002235
:101530001A60043300221A60043300221A60043354
:1015400000221A60043300221A6004330D4B1B681A
:101550005B6ABB6005237B734FF480533B823B4641
:1015600009481946FFF7E4FD074B40F203225A658C
:1015700005480521FFF7B0FD1837BD4680BD00BF07
:10158000001204003400002000C4004080B596B072
:1015900000AF3B1D1846114900F0E4F800200E2171
:1015A00004220123FFF7BAFC00237B650AE03A1D01
:1015B0007B6D13441B780A481946FFF77BFE7B6D51
:1015C00001337B657B6D0C2BF1DD00200E210422A5
:1015D0000023FFF7A3FC5837BD4680BDC81F00009D
:1015E00000C4004080B400AFBD465DF8047B704786
:1015F00080B500AFFFF7F6FF00F068F8FFF7C6FF11
:10160000084B1B78002B02D0012B07D009E0FFF715
:101610007DFE03461A46034B1A7002E000F004F800
:1016200000BFEBE7E400002080B59CB000AF0023D2
:1016300087F86F303B1D1846224900F093F81CE0F4
:101640000023BB660BE03A1DBB6E13441B789BB2B4
:101650001D481946FFF744FEBB6E0133BB66BB6EE7
:10166000302BF0DD1848FFF7FDFD034687F86F309B
:1016700097F86F30012B00D111E097F86F30002BF5
:101680000CBF01230023DAB297F86F30022B8CBF16
:1016900001230023DBB21343DBB2002BD0D197F838
:1016A0006F30012B0BD100200D2104220123FFF705
:1016B00035FC00200D2104220023FFF72FFC70379A
:1016C000BD4680BDD81F000000C4004080B500AFFB
:1016D000FFF7B4FEFFF7F8FEFFF712FF80BD00BF73
:1016E00008B5074B044613B10021AFF30080054B4A
:1016F0001868836A03B19847204600F057FC00BF82
:10170000000000000C20000070B50E4B0E4CE41AD7
:10171000A41000251E46A54204D056F8253098474F
:101720000135F8E700F044FC084C094BE41AA4101A
:1017300000251E46A54204D056F8253098470135AD
:10174000F8E770BD9C0000209C000020A000002055
:101750009C00002002440346934202D003F8011B80
:10176000FAE770470EB400B59CB04FF40271ADF8C3
:1017700014106FF00041049107914FF6FF711DABFB
:10178000ADF81610084953F8042B0290069008682B
:10179000019302A900F064F8029B00221A701CB0A9
:1017A0005DF804EB03B07047980000202DE9F04786
:1017B0008E68B34282460C469046994640D38A8949
:1017C00012F4906F3AD0256809696F1A656902238F
:1017D00005EB450595FBF3F57B1C4B449D4238BF5B
:1017E0001D4653050FD5294600F03CFB064698B12F
:1017F00021693A4600F0CBFAA38923F4906343F0C1
:101800008003A38113E02A4600F082FB064670B9EC
:101810005046216900F0E2FA0C23CAF80030A3898F
:1018200043F04003A3814FF0FF30BDE8F08726610D
:1018300065613E44ED1B2660A5604E46B14500D271
:101840004E4632462068414600F0ACFAA3689B1B26
:10185000A36023681E4426600020BDE8F0870000D6
:101860002DE9F0439DB0064603938B891C060D4677
:1018700090460CD50B6953B9402100F0F3FA28606B
:10188000286110B90C233360CCE040236B61002346
:10189000099320238DF8293030238DF82A304346D0
:1018A0001C4613F8012B1AB9B4EB08090FD002E05B
:1018B000252AF5D1F8E73046294642464B46FFF740
:1018C00075FF013000F0A980099B4B4409932378F0
:1018D000002B00F0A28000234FF0FF320493079307
:1018E000059206938DF853301A9304F1010844468B
:1018F000DFF8489121784846052200F039FA08F1CE
:101900000108049B30B1C9EB00000122824013435F
:101910000493ECE7D80644BF20228DF85320190722
:1019200044BF2B228DF8532022782A2A02D007990F
:1019300023460EE0039A111D12680391002ABBBFD3
:10194000524243F0020307920792B8BF0493013456
:101950000AE01C4601332278303A092A03D80A20CB
:1019600000FB0121F5E7079123782E2B1AD163782C
:101970002A2B0AD1039B1A1D1B680392002BB8BFA8
:101980004FF0FF33023405930CE0611C00220C463B
:1019900001312378303B092B03D80A2000FB0232A7
:1019A000F5E70592DFF8988021784046032200F0A1
:1019B000DFF938B1049AC8EB000040238340134399
:1019C0000493013421781A488DF82810062204F176
:1019D000010800F0CDF988B1164B33B9039B0733EA
:1019E00023F007030833039313E003AB009330465F
:1019F00004A92A46104BAFF3008007E003AB009325
:101A0000304604A92A460C4B00F092F8421C0746C7
:101A100003D0099B3B44099341E7AB895B0601D4A2
:101A2000099801E04FF0FF301DB0BDE8F08300BF22
:101A30001A20000000000000AD1700001020000078
:101A4000162000002DE9F84391461F468A680B696D
:101A5000DDF820809342B8BF1346C9F8003091F8F2
:101A6000432006460C4612B10133C9F80030236802
:101A7000990642BFD9F800300233C9F80030256812
:101A800015F006051CD094F843302268003318BFC7
:101A9000012392061FD5E1185A1C302081F843001B
:101AA000224494F8451082F84310023313E0304684
:101AB000394604F119020123C047013007D001352E
:101AC000E368D9F800209B1A9D42F0DBDBE74FF07A
:101AD000FF30BDE8F8833046394604F14302C04781
:101AE0000130F4D02268D9F80050E36802F0060211
:101AF000042A08BF5D1B2269A3680CBF25EAE575AF
:101B000000259342C4BF9B1AED184FF00009A94568
:101B10000ADA3046394604F11A020123C04701307F
:101B2000D5D009F10109F2E70020BDE8F8830000F3
:101B30002DE9FF410C461746227E6E2A984606463E
:101B40000A9B01F1430100F0AF8012D8632A23D031
:101B50000AD8002A00F0BC80582A40F0CB8084F8D4
:101B60004520DFF804E257E0642A1ED0692A1CD021
:101B7000C0E0732A00F0B08009D86F2A2ED0702AF6
:101B800040F0B880226842F0200222603FE0752ACF
:101B900024D0782A3BD0ADE01A68111D1960136873
:101BA00084F8423004F14205A8E020681A6810F079
:101BB000800F02D0101D186008E010F0400F02F1F5
:101BC0000400186002D0B2F9003000E01368002B66
:101BD0003EDA2D225B4284F8432039E020681A68FF
:101BE00010F0800F02D0101D186007E010F0400FB9
:101BF00002F10400186001D0138800E01368227E0F
:101C0000DFF864E16F2A0CBF08220A221CE0782268
:101C1000DFF858E184F845202268186812F0800F38
:101C200000F104051D6003D1550601D5038800E0CD
:101C30000368D00744BF42F0200222601BB922682B
:101C400022F0200222601022002084F8430002E0EB
:101C5000DFF814E10A226568A560002DA2BF2068A4
:101C600020F00400206003B965B10D46B3FBF2F02B
:101C700002FB10331EF8033005F8013D034600282F
:101C8000F4D100E00D46082A0BD12368DA0708D505
:101C9000236962689A42DEBF302305F8013C05F1F2
:101CA000FF35491B21612EE025681A68606915F02F
:101CB000800F03D0151D1D60136808E015F0400F5C
:101CC00002F104051D60136801D0188000E018605F
:101CD000002323610D4616E01A68111D196015686E
:101CE00062682846002100F043F808B1401B60609C
:101CF000636804E004F1420584F842200123236173
:101D0000002384F84330CDF800803046214603AAF2
:101D10003B46FFF797FE013002D14FF0FF301FE046
:101D2000304639462A462369C0470130F5D023683A
:101D30009B0705D4E068039B9842B8BF18460FE0A4
:101D40000025E368039A9B1A9D42F3DA3046394630
:101D500004F119020123C0470130DED00135F0E75C
:101D600004B0BDE8F08100BF212000003220000057
:101D700010B5C9B202449042034606D01C788C428A
:101D800000F10100F7D1184610BD002010BD10B5BC
:101D9000431E0A44914204D011F8014B03F8014F4D
:101DA000F8E710BD814210B501EB020301D3421EDA
:101DB0000BE09842FBD28118D21AD34204D013F818
:101DC000014D01F8014DF8E710BD994204D011F81A
:101DD000014B02F8014FF8E710BD000030B50029B3
:101DE0003DD051F8042C0B1F1D49002AB8BF9B1889
:101DF0000A680C4612B95A600B6030BD93420DD28E
:101E000019685818904201BF5A5852181A6042680F
:101E10005A60236030BD994203D80A4651680029B0
:101E2000F9D1146815199D420AD11B682344D018B2
:101E30008842136013D10868034413604B680DE0B7
:101E400002D90C23036030BD1C681819884204BFF6
:101E500008684968596004BF00191860536030BDB4
:101E6000D000002070B5CC1C24F0030408340C2CE6
:101E700038BF0C24002C064603DA0C233360002004
:101E800070BD8C42F9D3204A136810461946A1B19F
:101E90000A68121B0ED40B2A03D90A608B188C50C7
:101EA0001FE08B420DBF5A684A685A60026018BF33
:101EB0000B4616E00B464968E9E7144D2B681BB941
:101EC000304600F04BF828603046214600F046F8D6
:101ED000421C0346D1D0C51C25F0030585420AD11A
:101EE0001C6003F10B001A1D20F00700821A0AD0B3
:101EF0005142995070BD3046E91A00F02FF8013078
:101F0000BBD02B46ECE770BDD0000020CC000020F9
:101F1000F8B5074615460E4621B91146BDE8F8400A
:101F2000FFF7A0BF1AB9FFF759FF2846F8BD00F028
:101F300025F8A8420ED238462946FFF793FF0446FB
:101F400050B131462A46FFF722FF38463146FFF7A7
:101F500045FF01E03046F8BD2046F8BD38B5064CD7
:101F6000002305460846236000F012F8431C02D106
:101F7000236803B12B6038BD0001002051F8040C28
:101F80000028BEBF091851F8043CC0180438704737
:101F9000044A05491368002B08BF0B46184410601B
:101FA00018467047D400002008010020FEE700BF5B
:101FB000F8B500BFF8BC08BC9E467047F8B500BF36
:101FC000F8BC08BC9E46704748656C6C6F20576F24
:101FD000726C64200A000000414354494F4E533A4A
:101FE000200A20312D204348414E474520434F4E83
:101FF000464947200A20322D20524553554D452051
:1020000053414D504C494E470A00430038000020D0
:10201000232D302B2000686C4C00656667454647D1
:102020000030313233343536373839414243444554
:1020300046003031323334353637383961626364C3
:082040006566000000000000CD
:08204800F4E0FF7F010000003D
:10205000002D310100800000002D3101080000003A
:102060004001000000020000010000003C000000F0
:10207000006009001300000040420F0000E1000072
:102080000100000008000020000000000000000027
:102090000000000000000000000000000000000040
:1020A00000000000000000000A2000000000000006
:1020B0000000000000000000000000000000000020
:1020C0000000000000000000000000000000000010
:1020D0000000000000000000000000000000000000
:1020E0000000000000000000380000200501000092
:0820F000E10000000000000007
:04000003000001B147
:00000001FF
